:020000040000FA
:100000000820002075000000810000008900000029
:100010009100000099000000A10000000000000015
:10002000000000000000000000000000A900000027
:10003000B100000000000000B9000000C100000095
:10004000D1000000C9000000D9000000E10000005C
:10005000E9000000F1000000F900000001010000CB
:100060000348854600F07EF800480047290F00004D
:100070000820002024488046C14680472348004786
:1000800000B500F064FD00BD00B500F0AAF800BDA9
:1000900000B500F05BFD00BD00B500F0A0F800BDAC
:1000A00000B500F0DBFE00BD00B500F061FE00BD54
:1000B00000B500F095F800BD00B500F0FBFD00BDF7
:1000C00000B500F069FE00BD00B500F091FE00BD76
:1000D00000B500F0A5FE00BD00B500F087FE00BD34
:1000E00007B500F085F807BD07B500F086F807BD35
:1000F00007B500F087F807BD07B500F088F807BD21
:1001000007B500F06EFE07BDB50D000061000000F0
:1001100030B50B46014600202022012409E00D469F
:10012000D5409D4205D31D469540491B2546954027
:1001300040191546521E002DF1DC30BD70B500246B
:100140002546002801DA01244042002901DA012570
:100150004942FFF7DDFFAC4200D04042002C00D006
:10016000494270BD064C0125064E05E0E36807CC08
:100170002B430C3C98471034B442F7D3FFF774FF7D
:100180008C180000AC18000070B58C180578401C65
:100190006B075B0F01D10378401C2A1106D102784E
:1001A000401C03E006780E70401C491C5B1EF9D110
:1001B0002B0705D40023521E0DD40B70491CFAE7FF
:1001C0000378401CCB1A921C03E01D780D70491C6B
:1001D0005B1C521EF9D5A142D8D3002070BD7047D8
:1001E0007047704701484069C0B270470040004006
:1001F00010B5002000F08AFC10BD10B5012000F001
:1002000085FC10BD10B5022000F080FC10BD10B5BB
:10021000032000F07BFC10BD70B506460024174893
:10022000058840884543154880881549884216D17D
:1002300012488079012812D10020104988712A20A3
:1002400048812B2088810021084600F055FB0120C1
:100250000A4988712B2048812A20888103E00021E7
:10026000084600F049FB00F03FFC002403E0304664
:1002700000F015FC641CAC42F9D370BDF80A0020F4
:100280000468000010B50446002C1ED1184988717E
:10029000F0200880FF20413048802C2008812A204F
:1002A00048812B208881084680881249884204D0E2
:1002B0000F4880881049884215D1FF2041300C49F1
:1002C0000880FF20E13048800DE001200849887156
:1002D000FF2041300880F02048802C2008812A200F
:1002E00048812B208881002000F092F910BD000089
:1002F000F80A0020046800001053000030B50446DE
:100300000D462946204600F0F7FA00F0EDFB0248C2
:10031000008800F0C4FB30BDD60A002030B503468B
:100320000C4615461349488900F0CCFB181200F022
:10033000B6FBD8B200F0B3FB0E49888900F0C2FBCF
:10034000201200F0ACFBE0B200F0A9FB0020052178
:100350000907486008600749088900F0F3FB00209E
:10036000052109078860012088600860284600F0A0
:1003700096FB30BDF80A002010B5012005210907C1
:1003800008619F4800F0A2FD0020052109070861CF
:100390009B4800F09BFD0120052109070861984852
:1003A00000F094FD012005210907C8609548964991
:1003B000888008468088934988427CD1CF2000F00D
:1003C00081FB002000F06BFBC12000F068FB3020B7
:1003D00000F065FBED2000F075FB642000F05FFB92
:1003E000032000F05CFB122000F059FB812000F09C
:1003F00056FBE82000F066FB852000F050FB102043
:1004000000F04DFB7A2000F04AFBCB2000F05AFBB5
:10041000392000F044FB2C2000F041FB002000F0CC
:100420003EFB342000F03BFB022000F038FBF720BD
:1004300000F048FB202000F032FBEA2000F042FBF5
:10044000002000F02CFB002000F029FBC02000F071
:1004500039FB1B2000F023FBC12000F033FB0120FF
:1004600000F01DFBC52000F02DFB302000F017FB35
:10047000302000F014FBC72000F024FBB72000F070
:100480000EFB362000F01EFB482000F008FB3A204F
:1004900000F018FB552000F002FBB12000F012FB29
:1004A000002000F0FCFA1A2000F0F9FAB62000F063
:1004B00009FB0A2000E097E000F0F1FAA22000F02A
:1004C000EEFAF22000F0FEFA002000F0E8FA262012
:1004D00000F0F8FA012000F0E2FAE02000F0F2FA71
:1004E0000F2000F0DCFA2A2000F0D9FA282000F0D2
:1004F000D6FA082000F0D3FA0E2000F0D0FA082037
:1005000000F0CDFA542000F0CAFAA92000F0C7FA92
:10051000432000F0C4FA0A2000F0C1FA0F2000F0D6
:10052000BEFA002000F0BBFA002000F0B8FA00206C
:1005300000F0B5FA002000F0B2FAE12000F0C2FAB3
:10054000002000F0ACFA152000F0A9FA172000F006
:10055000A6FA072000F0A3FA112000F0A0FA062066
:1005600000F09DFA2B2000F09AFA562000F097FA3E
:100570003C2000F094FA052000F091FA102000F0E1
:100580008EFA0F2000F08BFA3F2000F088FA3F200F
:1005900000F085FA0F2000F082FA2B2000F092FA8A
:1005A000002000F07CFA002000F079FA012000F031
:1005B00076FA3F2000F073FA2A2000F083FA002038
:1005C00000F06DFA002000F06AFA002000F067FAEF
:1005D000EF2000F064FA112000F074FA0B4800F0EC
:1005E00075FC292000F06EFA0120FFF74BFE012078
:1005F0000521090748610020FFF70EFE10BD00002D
:10060000A025260041930000F80A0020808D5B00A1
:10061000F0B5054600240027B1488079012809D1AA
:10062000AF488088AF49884204D0AD488088AE4941
:10063000884208D1AA48807900281DD1A84880881E
:10064000A949884218D12B0000F014FC08050709BD
:100650000B0D0F11131506250DE007250BE00425E2
:1006600009E0052507E0012505E0002503E0032555
:1006700001E0022500BF00BF994880889B4988425D
:1006800013D097488088974988420ED09448808834
:100690009749884209D0924880889649884204D078
:1006A0008F488088904988427ED12B0000F0E2FB81
:1006B0000805070A0D101316191C00BF14E080204E
:1006C000044311E0402004430EE0C02004430BE04B
:1006D0002020044308E06020044305E0A0200443F8
:1006E00002E0E020044300BF00BF7D4880888149CC
:1006F000884202D11B277F0200E036277848808895
:100700007B4988420BD0764880887A49884206D057
:10071000734880887449884201D008200443704897
:1007200080887049884201D102200443214638461E
:1007300000F0E2F96A4880886B4988421ED0202088
:10074000204000280DD066480088654949888842C5
:1007500014DA634806884088614908800846468064
:100760000CE05F4800885E494988884206DD5C48A5
:10077000068840885A49088008464680584880883C
:100780005C49884254D15649488900F09BF90020C1
:1007900000F085F952494989491C88B200F092F964
:1007A000002000F07CF900E071E04D494989891C86
:1007B00088B200F087F94A490988491E0902080CE5
:1007C00000F06DF946494989C91C88B200F07AF9F0
:1007D00043490978491EC8B200F061F94049888947
:1007E00000F070F9002000F05AF93D498989491C50
:1007F00088B200F067F9002000F051F93849898982
:10080000891C88B200F05EF935494988491E090201
:10081000080C00F044F932498989C91C88B200F0FB
:1008200051F92F498978491EC8B200F038F956E0CD
:100830002B49488900F046F9002000F030F90020EB
:1008400000F02DF926490988491E0902080C00F01C
:1008500026F923490978491EC8B200F020F9204939
:10086000888900F02FF9002000F019F9002000F02D
:1008700016F91B494988491E0902080C00F00FF9B6
:1008800017498978491EC8B200F009F927E02B0002
:1008900000F0F0FA0805080B0E101316191C302092
:1008A000044313E01020044310E0202004430DE033
:1008B00000BF0BE03820044308E02820044305E093
:1008C0001820044302E00820044300BF00BF0327B0
:1008D0000120000304432146384600F00DF9F0BD25
:1008E000F80A00200468000063190000419300002A
:1008F000105300001055000010B503460C460A497D
:10090000488900F0DFF8181200F0C9F8D8B200F0FA
:10091000C6F80549888900F0D5F8201200F0BFF824
:10092000E0B200F0BCF810BDF80A0020FFB585B0B9
:100930000E461746102402962046E217520F121850
:10094000D210E3175B0F1B18DB10DB000094E31AD7
:1009500001D0012300E00023D2182146E30F5B18E9
:100960005B105A43D2B2019238462038C7B20025F4
:1009700056E00C2C05D138012C494018405D0490FC
:1009800011E0102C05D1380128494018405D049031
:1009900009E0182C05D1380124494018405D049025
:1009A00001E009B0F0BD0020039033E080210498FD
:1009B0000840002806D01E48028831460598FFF7F7
:1009C000ADFC08E00898002805D11A480288314695
:1009D0000598FFF7A3FC04984006000E0490701CD5
:1009E00086B215484088B04200DCDAE70298301A37
:1009F000A0420BD1029E0598401C80B205900E4883
:100A000001880598814200DCCBE706E00398401C92
:100A1000C0B2039003980828C8DB00BF681CC5B2A9
:100A200001988542A5DB00BFBBE700009A120000D9
:100A3000D60A0020D80A0020F80A0020FFB581B0AD
:100A400004460D460A9E1027E0B200900398001954
:100A500080B203900498401980B2049016E0039885
:100A6000844202DB009CE81985B20498854200DBD1
:100A700012E03278002329462046FFF757FF384618
:100A8000F90F0918491009198CB2761C30787E28A4
:100A900002DC30782028E2DA00BF05B0F0BD00B5F6
:100AA0000246012005210907486000200860104621
:100AB00000F048F8002005210907886001208860BF
:100AC000086000BD00B50246002005210907486006
:100AD0000860104600F036F80020052109078860FC
:100AE00001208860086000BD00B502490889FFF751
:100AF000E9FF00BDF80A002010B504460B46204669
:100B0000FFF7E0FF1846FFF7CAFF10BD30B50246F9
:100B10000020002100230A4C216801249440204633
:100B200004460C402346002B04D10C460443044DDC
:100B30002C6003E00C468443014D2C6030BD000066
:100B40000010004005210907886170477047704711
:100B5000C206D20E01219140014A11607047000087
:100B600000E100E0F7B582B006460F46002465E0DC
:100B70000498005D019004980019007A00900825FF
:100B800058E00198C007C00F00280ED00098C00799
:100B9000C00F002809D03A1991B27219521E90B2B2
:100BA0001F22D202FFF7BAFB3CE00198C007C00F3A
:100BB00000280ED00098C007C00FC043002808D0FE
:100BC0003A1991B27219521E90B21F22FFF7A6FB7A
:100BD00028E00198C007C00FC04300280ED000983D
:100BE000C007C00F002809D03A1991B27219521EDD
:100BF00090B23F225201FFF791FB13E00198C0072A
:100C0000C00FC04300280DD00098C007C00FC043DC
:100C1000002807D03A1991B27219521E90B20022E0
:100C2000FFF77CFB01984010019000984010009065
:100C3000681E85B2002DA4DC601C84B2082C97DBF2
:100C400005B0F0BDFFB583B0154619490C98088072
:100C5000002426E00D98075D29462046FFF76EFA2E
:100C6000C9000398081880B2029029462046FFF771
:100C700065FA0499401880B2019008260DE0F80743
:100C8000C00F002806D002998919491E88B201991F
:100C9000FFF734FB7F10701E86B2002EEFDC601C65
:100CA00084B206986843A042D4DC07B0F0BD0000CF
:100CB000D60A002070470000F0B506460C461746DD
:100CC00000200F490860032000F024F82102080EDC
:100CD00000F020F82104080E00F01CF8E0B200F04B
:100CE00019F8002505E0FF2000F014F87055681C85
:100CF00085B2BD42F7DB012001490860F0BD00006C
:100D000000400040024948600121014A11607047DB
:100D10000040004010B50446002305E0581CC3B253
:100D2000C82B01DD002010BDFFF75CFA0028F5D0CC
:100D3000204600F013F8002305E0581CC3B2C82B6E
:100D400001DD0020EFE7FFF74DFA0028F5D002485B
:100D50000069C0B2E7E70000004000400349886036
:100D60000121024AD1600021D1607047004000405B
:100D700070470000014908617047000000E000E092
:100D8000014948617047000000E000E001498861C6
:100D90007047000000E000E010B50020FFF7EAFF18
:100DA000034840680121490608430149486010BDD5
:100DB00000ED00E010B50320FFF7CAFE0420FFF7A6
:100DC000C7FE0520FFF7C4FE0620FFF7C1FE012085
:100DD000FFF7BEFE0020FFF7BBFE0720FFF7B8FEBF
:100DE00010BD10B50720FFF791FE10BD7047000041
:100DF00010B50120800700F013FA0120FFF786FEEE
:100E000001A000F02DF810BD756172745F7278203A
:100E1000696E74206F636375722121210A000000DE
:100E200008B50120800700F0FEF90220FFF76EFEF2
:100E300004A0FF234133F022002100900846FFF771
:100E4000FDFD08BD5541525454585F4952516E2022
:100E50004F43435552454421212100007047000073
:100E600010B5024A024900F022F810BD090F000037
:100E7000DC0A002030B47446641E2578641CAB4242
:100E800004D3635D5B00E31830BC18471D46F8E7E8
:100E900002E008C8121F08C1002AFAD17047704743
:100EA000002001E001C1121F002AFBD17047F8B5F4
:100EB00016460F460446002503E03946B047641C39
:100EC0006D1C20780028F8D12846F8BD00B50246F0
:100ED0000020FFF74FFF1046FFF752FF0020FFF7FB
:100EE00055FF0720FFF746FF30BF00BD10B5034692
:100EF0001C4603E00348FFF7E9FF641E002CF9D10C
:100F000010BD000050C3000070B504460D460A2C09
:100F100003D10D21400700F089F9E1B201208007DB
:100F200000F084F9204670BD1FB5002000900190AC
:100F3000029001231A46FF21B3310390480700F0C5
:100F400080F96420FFF7DEFEFFF716FA0025012086
:100F5000000300F04BF90546012212030021284648
:100F6000FFF7AAFE002415E0002600272046E1171F
:100F7000C90E091849114901611ACEB2E117C90E0B
:100F80000918C9040F0E23015A19F900F000FFF7E0
:100F9000E9FD641C802CE7DB072000022A18C82129
:100FA0000020FFF7DFFD712000012A18C82108206A
:100FB000FFF7D8FD392040012A18D0210020FFF783
:100FC000D1FD732000012A18D0210820FFF7CAFDA7
:100FD000284600F0FBF80120000300F007F9054661
:100FE0000122120311462846FFF766FE002417E08F
:100FF000002600272046E117C90E091849114901AA
:10100000611ACEB2E117C90E0918C9040F0E2301E7
:101010005A19FB0019466431F000FFF7A3FD641C68
:10102000802CE5DB284600F0D1F87D20C000FFF7DA
:101030005DFF1948FFF7F0F800BF2CE017481F21AB
:10104000C90248231E220091019032212820FFF777
:10105000F9FD1348134920230622009101900A212B
:101060000846FFF7EFFD10480E49202304220091A7
:1010700001900A216420FFF7E5FD0C48094930235F
:101080000622009101900A219620FFF7DBFDFF2048
:10109000F530FFF72BFFD1E758540000660200201F
:1010A00000000020FFFF0000C000002040010020E1
:1010B00070B505461048007C002804D10E49086828
:1010C0008047012070BD01200003854211D26909CB
:1010D0000948C0684B00C25A002406E00020064BB5
:1010E000DB680E1976009853641C9442F6DB0020EE
:1010F000E8E70220E6E70000E40A002000B509491D
:10110000FF220132C868002100F080F80549012261
:1011100012038868002100F079F801200149087461
:1011200000BD0000E40A0020F8B5064600240020B7
:1011300000901B48007C002802D1194908688047AC
:10114000002E01D1701EF8BDF002050CF006C00E95
:10115000002801D0681C85B27F241CE01048C068BC
:101160006100405A002804D10098401C80B20090D1
:1011700001E0002000900098A8420BD1002705E074
:101180000748C068E119490045527F1CAF42F7D3B8
:101190006001D8E7641E002CE0DA0020C043D2E7EB
:1011A000E40A00200022002107E00748C0684B0045
:1011B000C05A002800D0521C491C8029F5D3642055
:1011C00050434004000E7047E40A002070B5044606
:1011D000002C00D170BD04488068251A2846FFF70E
:1011E00067FF00BFF6E70000E40A002070B505467F
:1011F0002846FFF799FF0446601C002800D170BD07
:10120000014880680019FAE7E40A002030B5034677
:1012100001E019705B1C1446521E002CF9D130BD40
:101220000221C16070470121C160704705E042683A
:10123000D207D20F002A00D100E0F8E700BF01601A
:101240007047F0B50446059D0026002A01D0012014
:101250000643002B01D002200643002D01D00420BC
:1012600006430698002801D0082006430798002866
:1012700001D0102006430898002801D02020064302
:101280000020A0602161A66060680C27384000281B
:1012900001D00120F0BD0020FCE7000000000000AC
:1012A000000000000000000000000000000000003E
:1012B0001FCC000C000000000000000008003000FF
:1012C00060000800300060000000022003FC1E20C7
:1012D000022003FC1E200220000000000E18110452
:1012E0003FFF10840C78000000000F0010840F38BE
:1012F00000C0077818840078000000780F8410C4BC
:1013000011240E9800E400840008080068007000B2
:1013100000000000000000000000000000000000CD
:1013200007E01818200440020000000040022004DA
:10133000181807E000000000000002400240018091
:101340000FF0018002400240000000800080008019
:101350000FF800800080008000000001000D000EEA
:10136000000000000000000000000000008000807D
:10137000008000800080008000800000000C000CD5
:10138000000000000000000000000000000600183F
:1013900000600180060018002000000007F0080827
:1013A00010041004080807F00000000008040804F6
:1013B0001FFC000400040000000000000E0C1014CC
:1013C0001024104411840E0C000000000C181004AE
:1013D0001104110412880C700000000000E00320CA
:1013E000042408241FFC0024000000001F9810841F
:1013F00011041104108810700000000007F0088824
:101400001104110418880070000000001C00100076
:1014100010FC13001C001000000000000E381144E6
:101420001084108411440E38000000000700088C5E
:1014300010441044088807F000000000000000007D
:10144000030C030C0000000000000000000000017D
:1014500001060000000000000000000000800140C4
:1014600002200410080810040000022002200220BC
:1014700002200220022002200000000010040808C0
:101480000410022001400080000000000E00120045
:10149000100C106C10800F00000003E00C1813E417
:1014A000142417C4082807D000000004003C03C41B
:1014B0001C40074000E4001C000410041FFC110441
:1014C000110411040E880070000003E00C181004D1
:1014D0001004100410081C10000010041FFC10045D
:1014E00010041004080807F0000010041FFC110489
:1014F000110417C410040818000010041FFC110484
:10150000110017C010000800000003E00C181004C0
:10151000100410441C780040000010041FFC1084CC
:101520000080008010841FFC1004000010041004D0
:101530001FFC100410040000000000030001100153
:1015400010011FFE10001000000010041FFC110409
:1015500003801464181C1004000010041FFC100405
:10156000000400040004000C000010041FFC1F0015
:1015700000FC1F001FFC1004000010041FFC0C04E2
:10158000030000E010181FFC100007F0080810040A
:1015900010041004080807F0000010041FFC108459
:1015A0001080108010800F00000007F00818102431
:1015B0001024101C080A07F2000010041FFC11047C
:1015C000110011C011300E0C000400000E1C11049B
:1015D0001084108410441C380000180010001004FF
:1015E0001FFC100410001800000010001FF8100469
:1015F0000004000410041FF8100010001E0011E089
:10160000001C007013801C0010001FC0103C00E084
:101610001F0000E0103C1FC000001004180C16341E
:1016200001C001C01634180C100410001C00130473
:1016300000FC13041C00100000000804101C1064BF
:10164000108413041C0410180000000000000000A7
:101650007FFE4002400240020000000030000C000B
:1016600003800060001C00030000000040024002F4
:1016700040027FFE0000000000000000000020008B
:101680004000400040002000000000010001000177
:1016900000010001000100010001000040004000C5
:1016A000200000000000000000000000009801245D
:1016B00001440144014400FC000410001FFC0088A8
:1016C0000104010400880070000000000070008820
:1016D000010401040104008800000000007000887B
:1016E0000104010411081FFC0004000000F801447B
:1016F00001440144014400C8000000000104010449
:101700000FFC1104110411001800000000D601297B
:101710000129012901C90106000010041FFC0084F1
:1017200001000100010400FC000400000104190490
:1017300019FC000400040000000000000003000188
:101740000101190119FE0000000010041FFC002413
:10175000004001B4010C010400000000100410045A
:101760001FFC0004000400000000010401FC01044F
:10177000010001FC0104010000FC010401FC0084E3
:1017800001000100010400FC0004000000F8010455
:1017900001040104010400F80000010101FF0085BB
:1017A000010401040088007000000000007000883F
:1017B00001040104010501FF00010104010401FC11
:1017C00000840104010001800000000000CC01241D
:1017D00001240124012401980000000001000100FF
:1017E00007F80104010400000000010001F80004F2
:1017F00000040004010801FC0004010001800170E4
:10180000000C001001600180010001F0010C0030AB
:1018100001C00030010C01F0010000000104018C46
:1018200000740170018C010400000101018101714B
:10183000000E001801600180010000000184010C0D
:10184000013401440184010C00000000000000008C
:10185000000001003EFC40024002000000000000C9
:101860000000FFFF000000000000000040024002F6
:101870003EFC01000000000000000000600080004D
:10188000800040004000200020000000AC18000054
:1018900000000020F80A0000880100003C1D000044
:1018A000F80A002010150000A00E0000212301807E
:1018B0001B03FF013AE00612C03A3F06250C07E081
:1018C00030F906291D4BFFFE0629055BFFFF124874
:1018D0000CCC07E033FE03CC018033F00611220C60
:1018E0002936F9060D123F8001FC0609112A2BFF4B
:1018F000FF1E390629666906A924418A03043C01B2
:10190000FFFE04114B7FF8044B1FE00499243904B7
:101910003B3FF0042D01FFFF80044B3FFC022BFFF7
:10192000FC6F3B3FFF0E29791A1F2829041A0F4428
:101930001904192C2AC004913B0130863B01800D0B
:1019400089061A035569061C07FFFF3E4906296DE3
:101950006906111A1FA169063A035449061A0F7144
:101960000942061A0771112D0607E0608919B64968
:101970000619D839E4890629054CFFFF7F0739018C
:101980002A1F051008F81FFFFE7FFFF81C1F866145
:10199000A349061D06066060062119061DFF87E1A2
:1019A000FF068BE7E7062A0712112AFF05B9060191
:1019B000AE041B03FFF0041B3FFFFE0519FFFFFFF2
:1019C000801A011E0A19C0770419FFFFE01A071ECA
:1019D0000918970A390F1E1A1F1E0A35F81E0A3DEC
:1019E0003F1E0A19FC1E0A1BE71E7AE31E1A3E025E
:1019F000319301C09C7FFFC31EFA7F1E7AC71E1A57
:101A00007E1E7A301E6A801E4A7F101A7E3E1B7030
:101A1000021E420212C04B04021E19B9292B1112D8
:101A200002CB70031E2C87FFF81E114A041E1202FF
:101A30003B03801E3A801E148FFFF81A1F1E230CD2
:101A40001F12062A601E62061E07FE7FFF0F1E1170
:101A50001A011E133FFCCA1E1E2AF41E1AF01E1283
:101A6000FE4E183FFC01FC1E29653129072A3F1E46
:101A70001303FC14300184120C6BE0061E420119A2
:101A800073491E1A202C191E12043A0335196C4989
:101A90001E1AE0631AF854591E61791E4AC01E1BB3
:101AA00006081E7AC01E19342A3C1E2280130FF02D
:101AB0001AC01E9A081E19031AF89529431A1F1EE8
:101AC0003A0E1E720C3A0351591E1CE001801E177B
:101AD0001801C00FFFFC1A078B291E9A801E5A1C82
:101AE0001E3AF81E22022A06EF2978143FC0031B73
:101AF0003C101E1B800E651A03131C0201F0834963
:101B00001E5C7FC0071E12085230AA061E138006F4
:101B10003A7C1E12185A60B54A801E19F014FF80D4
:101B20000F1378101B10031E190F61891E112F0F40
:101B30008FF81004301E194BC91E1301FF151F0327
:101B4000F820191E8B10011E3C03FFE01E12FE122E
:101B500018391E195D511B07E01E1D07FFF07F1E7F
:101B60009A031E19E6311C0FE00823591E12FC12BD
:101B70003816F0200820071330062A101E8AC01ECF
:101B80001307FC6A7C1E1A0C2921120E191E3C2711
:101B9000FFF81E2AF81E12601A601E121832782AE8
:101BA0000C1E4AEF1E130FF05AFC1E3B20101E1A8B
:101BB0000889BA011E12401360061B20300B491E13
:101BC0002B03CF1E12807C1FF0011E3A601E1A18D4
:101BD000022E078FFFF8FF1E1AE01E1360401A4006
:101BE0001E1AC0FD291E12104B070F1E1B3FC0D42A
:101BF0001360C013400E5D61C0039E1E7A061E195D
:101C0000D4491E3D4180071F1E12302D040FFFF0E6
:101C10001E4B7F801E13C00E1A4351319A101E15A1
:101C2000FF8007FE13608013C00C12479A0E1E241B
:101C3000F1FFFF15FF800FFE16618020C01C12C649
:101C4000241C0F808A301E1301FF191E3A411E12F8
:101C5000CC3B38071E1B20101E4AF31E10091FFF25
:101C60000FC18020801C1ADC1E3AC01E1A701E1480
:101C7000FFFFFE1303FE1F3FFF3FC180211E12B86E
:101C80001B70031E12208B20F01E1236130FC12969
:101C90001E12F02CE003E01E1361F0291E12FC1945
:101CA000B1311A017A1A18072AC01E216B63D01E9F
:101CB0005AFC1E112A381E3A011E3BEF801E12F8F4
:101CC000430FF84A031E3B03801E2301DE591E18F2
:101CD00009FFF001FF0713C0C31E1B7FE7C32808DD
:101CE000F8E007C7D80FFF1E1AF0CF19012ADF0549
:101CF00039A51139081D900FFF07076AE01E3AEF5A
:101D00001619572BFFF9251C0FFE030F19DE81C48E
:101D100001E060291E021A80396801191A3FB301D7
:101D20001AAA0F77091624A301101AFD0C23A51176
:0C1D300013080B1420081B4220000000C8
:040000050000006196
:00000001FF
