:020000040000FA
:10000000000400207500000081000000890000004D
:100010009100000099000000A10000000000000015
:10002000000000000000000000000000A900000027
:10003000B100000000000000B9000000C100000095
:10004000D1000000C9000000D9000000E10000005C
:10005000E9000000F1000000F900000001010000CB
:100060000348854600F054F80048004709020000A4
:100070000004002024488046C146804723480047AA
:1000800000B500F05FF800BD00B500F055F800BD08
:1000900000B500F056F800BD00B500F04BF800BD0B
:1000A00000B500F083F800BD00B500F04DF800BDCC
:1000B00000B500F040F800BD00B500F044F800BD08
:1000C00000B500F055F800BD00B500F06DF800BDBA
:1000D00000B500F06AF800BD00B500F064F800BD9E
:1000E00007B500F02AF807BD07B500F027F807BDEF
:1000F00007B500F024F807BD07B500F021F807BDEB
:1001000007B500F04FF807BD8D0100006100000049
:10011000064C0125064E05E0E36807CC2B430C3C5A
:1001200098471034B442F7D3FFF79EFF2C0200002B
:100130003C02000070477047704770477047704737
:100140007047704770477047704700000149086169
:100150007047000000E000E001494861704700007E
:1001600000E000E0014988617047000000E000E025
:1001700010B50020FFF7EAFF034840680121490657
:1001800008430149486010BD00ED00E00020C04375
:10019000C206D20E01219140014A116000BF704792
:1001A00000E100E07047704770477047704702E019
:1001B00008C8121F08C1002AFAD1704770470020F2
:1001C00001E001C1121F002AFBD1704700B50246B1
:1001D0000020FFF7BBFF1046FFF7BEFF0020FFF730
:1001E000C1FF0720FFF7B2FF30BF00BD10B50346C7
:1001F0001C4603E00348FFF7E9FF641E002CF9D119
:1002000010BD000050C300000FE00F20012189073E
:100210000860FF20F530FFF7E9FFF0200121890792
:100220000860FF20F530FFF7E1FFEEE73C02000039
:0C0230000000002000040000BE010000DF
:040000050000006196
:00000001FF
