:020000040000FA
:10000000000400207500000081000000890000004D
:100010009100000099000000A10000000000000015
:10002000000000000000000000000000A900000027
:10003000B100000000000000B9000000C100000095
:10004000D1000000C9000000D9000000E10000005C
:10005000E9000000F1000000F900000001010000CB
:100060000348854600F054F800480047410200006C
:100070000004002024488046C146804723480047AA
:1000800000B500F07BF800BD00B500F055F800BDEC
:1000900000B500F072F800BD00B500F04BF800BDEF
:1000A00000B500F09FF800BD00B500F069F800BD94
:1000B00000B500F040F800BD00B500F060F800BDEC
:1000C00000B500F071F800BD00B500F089F800BD82
:1000D00000B500F086F800BD00B500F080F800BD66
:1000E00007B500F02AF807BD07B500F027F807BDEF
:1000F00007B500F024F807BD07B500F021F807BDEB
:1001000007B500F06BF807BDC501000061000000F5
:10011000064C0125064E05E0E36807CC2B430C3C5A
:1001200098471034B442F7D3FFF79EFF58020000FF
:10013000680200007047704770477047704770470B
:10014000704730B502460020002100230124A40797
:10015000616801249440204604460C402346002B4D
:1001600005D10C4604430125AD076C6004E00C4644
:1001700084430125AD076C6030BD70477047704700
:1001800070470000014908617047000000E000E08E
:10019000014948617047000000E000E001498861C2
:1001A0007047000000E000E010B50020FFF7EAFF14
:1001B000034840680121490608430149486010BDD1
:1001C00000ED00E00020C043C206D20E01219140A4
:1001D000014A116000BF704700E100E070477047BE
:1001E00070477047704702E008C8121F08C1002A14
:1001F000FAD170477047002001E001C1121F002AA8
:10020000FBD1704700B502460020FFF7BBFF104648
:10021000FFF7BEFF0020FFF7C1FF0720FFF7B2FF87
:1002200030BF00BD10B503461C4603E00348FFF78E
:10023000E9FF641E002CF9D110BD000050C300007E
:1002400009E00120FFF77DFF0320FFF77AFFFF2081
:10025000F530FFF7E7FFF4E7680200000000002038
:0802600000040000F60100009B
:040000050000006196
:00000001FF
